:100000000C94862D0C94B72D0C94B72D0C94B72D11
:100010000C94B72D0C94B72D0C94B72D0C94B72DD0
:100020000C94B72D0C94B72D0C94B72D0C94B72DC0
:100030000C94B72D0C94B72D0C94B72D0C94B72DB0
:100040000C94B72D0C9498E10C94B72D0C94B72D0B
:100050000C94B72D0C94B72D0D946E610C945CC26A
:100060000C94B72D0C94CE400C94B72D0C94B72D56
:100070000C94B72D0C94B72D0C94B72D0C94B72D70
:100080000C94623C0C94B72D0C94B72D0C94B72DA6
:100090000C94B72D0C94B72D0C94B72D0C94B72D50
:1000A0000C94B72D0C94B72D0C94343C0C94B72DB4
:1000B0000C94B72D0C94B72D0C94B72D0C94063CD2
:1000C0000C94B72D0C94B72D0C94B72D0C94B72D20
:1000D0000C94B72D0C94B72D0C94B72D0C94B72D10
:1000E0000C94B72DEE4AF54A704B3A4C904D9B4D0F
:1000F000AB4D8CC08FC07EC082C088C0C6C093C0CC
:1001000097C09DC0A1C0A5C0ABC0AFC0B3C0C6C0A2
:10011000B9C0BDC0C1C059C15EC163C16DC177C1A5
:10012000F0C181C189C191C19BC1A5C1AFC1BEC18F
:10013000C8C1F0C1D2C1DCC1E6C198D87ED881D88F
:1001400084D887D893D88AD8A4D88DD890D850018D
:10015000AC017E013E01B601AE016A015C01D20133
:1001600092015A01520134019A01AE01A8019E0187
:10017000B80176013C019401AA01BA01CE017201D5
:1001800038016601C8017A0160014E018201CE0189
:100190007801CA01A601084AD73B3BCE016E84BC58
:1001A000BFFDC12F3D6C74319ABD56833DDA3D00D1
:1001B000C77F11BED9E4BB4C3E916BAAAABE00001A
:1001C00000803F05A84CCDB2D44EB93836A9020CF8
:1001D00050B9918688083CA6AAAA2ABE00000080D1
:1001E0003F07634236B79BD8A71A39685618AEBA8C
:1001F000AB558C1D3CB7CC5763BD6DEDFD753EF620
:10020000177231BF000000803F08000000BE92243A
:1002100049123EABAAAA2ABECDCCCC4C3E0000006F
:1002200080BEABAAAAAA3E00000000BF000000806A
:100230003F0000000000084178D3BB4387D1133D45
:10024000190E3CC3BD4282AD2B3E68EC8276BED90E
:100250008FE1A93E4C80EFFFBE01C4FF7F3F00004D
:10026000000000000D94D14C0D9484750D945052F3
:100270000D9467780D9454520D94BE770D94697562
:100280000D94BA4C0D94BA270D9450280D941D3B33
:100290000D94286B0D94626A0D94CA2B0D941479F9
:1002A0000D945F750D9481750D94666A0D945A6D69
:1002B0000D949B4D0D947D750D9473750D94DA22FC
:1002C0000D94F1780D94266B0D94484F0D94887819
:1002D0000D94F61B0D9470750D9496350D94D622E1
:1002E0000D9470210D9446780D9436260D949F77C9
:1002F0000D945A790D94CE780D946C520D946675C8
:100300000D9448520D9437790D94992A0D94102923
:100310000D9471520D9482500D94642D0D9476526B
:100320000D94B8350D947A750D94DD770D943F6A70
:100330000D944C520D9487750D947F290D948E75F4
:100340000D946F380D94E1260D94CF800D949F7914
:100350000D948B750D9400780D9462750D949575C0
:100360000D94152C0D94F41B0D942A3A0D946C7574
:100370000D9491750D9423780D94A34C0D94AF2991
:100380000D94A1720D9412070D94236B0D94D82235
:100390000D94AB780D947D790D9497350D94C279B9
:1003A0000D94031F0D9477754E414E494E49545993
:1003B000494E46CDCCCC3D0AD7233C17B7D1387730
:1003C000CC2B329595E6241FB14F0A000020410046
:1003D00000C84200401C4620BCBE4CCA1B0E5AAE90
:1003E000C59D7400407A10F35A00A0724E1809009F
:1003F00010A5D4E80000E87648170000E40B54028A
:100400000000CA9A3B000000E1F5050000809698C4
:1004100000000040420F000000A086010000001014
:100420002700000000E80300000000640000000056
:10043000000A00000000000100000000002C76D837
:1004400088DC674F0823DFC1DFAE59E1B1B796E51D
:10045000E3E453C63AE651997696E8E6C28426EB81
:10046000898C9B62ED407C6FFCEFBC9C9F40F2BA94
:10047000A56FA5F490055A2AF75C936B6CF9676D2C
:10048000C11BFCE0E40D47FEF520E6B500D0ED9081
:100490002E0300943577050080841E080000204E4E
:1004A0000A000000C80C333333330F986E128311E7
:1004B00041EF8D2114893BE65516CFFEE6DB18D1BE
:1004C000844B381BF77C1D901DA4BBE42420328490
:1004D000725E228100C9F124ECA1E53D2736372662
:1004E00003FFFFFF353C3D38FF0FFFFF312E303E4D
:1004F00012FFFFFFFF28FF0C0806FFFFFF1A1C1862
:10050000FFFF2A08440A09430001627573793A2003
:1005100070617573656420666F7220696E707574A2
:100520000A00627573793A2070617573656420669C
:100530006F7220757365720A00627573793A207064
:10054000726F63657373696E670A004B494C4C4563
:10055000442E20004B494C4C206361757365642028
:100560006279204B494C4C20627574746F6E2F7009
:10057000696E0A004B494C4C45442E20004B494CB7
:100580004C2063617573656420627920746F6F20FD
:100590006D75636820696E6163746976652074693E
:1005A0006D65202D2063757272656E7420636F6DAA
:1005B0006D616E643A20004D36303000506C6561DC
:1005C0007365207265736574005052494E544552EC
:1005D0002048414C544544005072696E7465722045
:1005E00068616C7465642E206B696C6C28292063CB
:1005F000616C6C6564210A004572726F72207772BB
:100600006974696E6720746F20454550524F4D21C3
:100610000A00205A00204A0020204D34323120495F
:10062000002020473239204939390A006163746952
:1006300076652E0A00696E002053797374656D200B
:1006400076312E303120002020207C0A004E414E91
:100650000020202E20202000207C004C43443A0A19
:10066000004353563A0A0020666F7220003A0A0A85
:10067000000A42656420546F706F67726170687918
:10068000205265706F727400446F6E652E0A003FD1
:10069000557365203020746F20003F496E76616C81
:1006A00069642073746F7261676520736C6F742E58
:1006B0000A003F454550524F4D2073746F72616779
:1006C00065206E6F7420617661696C61626C652E65
:1006D0000A00446F6E652E0A003F55736520302076
:1006E000746F20003F496E76616C69642073746F8B
:1006F0007261676520736C6F742E0A003F45455028
:10070000524F4D2073746F72616765206E6F742055
:10071000617661696C61626C652E0A00473239202E
:1007200050322066696E69736865642E0A005859F4
:10073000206F757473696465207072696E7461628C
:100740006C65207261646975732E0A003F45727290
:100750006F7220696E20427573696E6573732043F2
:10076000617264206D6561737572656D656E742E5E
:100770000A004D616E75616C6C792070726F6269F0
:100780006E6720756E726561636861626C65206D6D
:10079000657368206C6F636174696F6E732E0A00F5
:1007A000292E0A0A0050726F62696E67204D6573C8
:1007B0006820506F696E747320436C6F7365737437
:1007C00020746F2028004D65736820696E76616C17
:1007D0006964617465642E2050726F62696E67206F
:1007E0006D6573682E0A004D657368207A65726FB7
:1007F00065642E0A0044656661756C742073746FBD
:100800007261676520736C6F7420302073656C654E
:10081000637465642E0A004C6F6164696E672074AE
:100820006573745F7061747465726E2076616C7547
:1008300065732E0A0A00496E76616C6964207465DE
:1008400073745F7061747465726E2076616C756527
:100850002E20282D3120746F2032290A0A004C6F77
:10086000636174696F6E7320696E76616C6964612F
:100870007465642E0A0A00456E74697265204D65C0
:10088000736820696E76616C6964617465642E0AB0
:100890000A005374616E6461726420446576696114
:1008A00074696F6E3A20004D65616E204D65736806
:1008B000204865696768743A200023206F662073BA
:1008C000616D706C65733A2000434F4D4D554E4934
:1008D000434154494F4E0044525952554E004552DF
:1008E000524F525300494E464F004543484F004730
:1008F000322F47332062616420706172616D6574CC
:100900006572730A00436C69636B20746F207265B3
:1009100073756D652E2E2E00456E642066696C65BC
:10092000206C6973740A00426567696E2066696CA1
:1009300065206C6973740A0044656C6574696F6E38
:10094000206661696C65642C2046696C653A2000FC
:1009500046696C652064656C657465643A00507224
:10096000696E742074696D653A2000446F6E652E5F
:100970000A0074726967676572206E6F742064651F
:100980007465637465640A006E6F697365206465DD
:10099000746563746564202D20706C6561736520D7
:1009A00072652D72756E20746573740A00424C5422
:1009B0006F75636820636F6D70617469626C652028
:1009C00070726F6265206465746563746564202D60
:1009D0002070756C736520776964746820282B2FEC
:1009E0002D20346D53293A20005A20536572766FBA
:1009F0002050726F62652064657465637465640A73
:100A000000706C6561736520747269676765722038
:100A100070726F62650A004552524F523A20424C42
:100A2000544F55434820656E61626C6564202D20EB
:100A300073657420746869732064657669636520E2
:100A400075702061732061205A20536572766F2083
:100A500050726F6265207769746820696E7665727E
:100A600074696E6720617320747275652E0A002E9A
:100A7000202053544F574544202874726967676596
:100A8000726564292073746174653A204849474847
:100A900020286C6F6769632031290A002E202044CA
:100AA00045504C4F5945442073746174653A204C4D
:100AB0004F5720286C6F6769632030290A002E2069
:100AC0002053544F574544202874726967676572F4
:100AD0006564292073746174653A204C4F5720284F
:100AE0006C6F6769632030290A002E20204445502E
:100AF0004C4F5945442073746174653A2048494706
:100B00004820286C6F6769632031290A00424C54E1
:100B10006F75636820636C6F6E65206465746563D0
:100B20007465640A005741524E494E47202D2049B2
:100B30004E56455254494E472073657474696E672A
:100B40002070726F6261626C79206261636B7761A1
:100B50007264730A002E206465706C6F7920262001
:100B600073746F7720342074696D65730A00666151
:100B70006C73650A002E205A5F4D494E5F454E4406
:100B800053544F505F494E56455254494E473A20B0
:100B9000002E2075736573205A5F4D494E5F454E98
:100BA0004453544F505F494E56455254494E472086
:100BB0002869676E6F726573205A5F4D494E5F50AA
:100BC000524F42455F454E4453544F505F494E5635
:100BD000455254494E47290A002E2070726F6265B3
:100BE0002075736573205A5F4D494E2070696E3AC7
:100BF00020002E202073746F7720616E676C653A39
:100C0000202020002E20206465706C6F7920616E9A
:100C1000676C653A20002E20207573696E67206925
:100C20006E6465783A202000536572766F2070728A
:100C30006F626520746573740A0057617463686934
:100C40006E672070696E730A0064697300656E00D8
:100C500061626C65640A00656E6473746F70206D08
:100C60006F6E69746F7220004F66660A004F6E0ADD
:100C7000004732362044656275673A200046696C49
:100C8000616D656E7420757365643A2000537461FC
:100C900074733A20002C204C6F6E67657374206A61
:100CA0006F623A2000546F74616C2074696D653A0C
:100CB000200053746174733A20002C204661696CE3
:100CC00065643A20002C2046696E69736865643A51
:100CD00020005072696E74733A200053746174730B
:100CE0003A200020573A004520436F6F6C696E67C9
:100CF0002E2E2E00452048656174696E672E2E2EBB
:100D0000006F666600EA08E508DE08D708C90844EF
:100D1000454255473A004B494C4C45442E20004D26
:100D2000313133205300526170746F7232204F663C
:100D3000662E00544845524D414C5F50524F544529
:100D40004354494F4E004155544F5245504F525411
:100D50005F53445F53544154555300454D455247EA
:100D6000454E43595F50415253455200434153450C
:100D70005F4C494748545F4252494748544E455397
:100D80005300544F47474C455F4C49474854530024
:100D9000534F4654574152455F504F5745520042BA
:100DA00055494C445F50455243454E54004C4556BE
:100DB000454C494E475F44415441005A5F50524FA1
:100DC0004245004155544F4C4556454C0050524900
:100DD0004E545F4A4F420050524F475245535300C2
:100DE0004155544F5245504F52545F54454D500059
:100DF000564F4C554D455452494300454550524F6E
:100E00004D0053455249414C5F584F4E5F584F4635
:100E100046004649524D574152455F4E414D453A75
:100E20004D61726C696E206275676669782D322E2D
:100E3000302E7820284769746875622920534F55F1
:100E40005243455F434F44455F55524C3A68747472
:100E500070733A2F2F6769746875622E636F6D2FF8
:100E60004D61726C696E4669726D776172652F4D66
:100E700061726C696E2050524F544F434F4C5F5615
:100E8000455253494F4E3A312E30204D4143484947
:100E90004E455F545950453A526170746F7232201A
:100EA00045585452554445525F434F554E543A317C
:100EB00020555549443A63656465326132662D3484
:100EC0003161322D343734382D396231322D63356A
:100ED000356336326633363766660A002F2F2000B8
:100EE00066696C616D656E743A20007A5F6D696E3B
:100EF0003A2000795F6D61783A2000785F6D696E05
:100F00003A20005265706F7274696E6720656E6476
:100F100073746F70207374617475730A004D31348B
:100F20003520533C696E6465783E206F7574206F80
:100F3000662072616E67652028302D31290A0020F5
:100F40005400205200416363656C65726174696F7F
:100F50006E3A2050005741524E494E4721204C6F67
:100F600077205A204A65726B206D6179206C65612B
:100F70006420746F20756E77616E74656420706193
:100F8000757365732E0A004F6666004F6E20002051
:100F90005A00205900580020204D61783A20002046
:100FA0005A00205900580020204D696E3A20005305
:100FB0006F667420656E6473746F70733A200020DE
:100FC000466C6F773A200050726F74656374656485
:100FD0002050696E0A00206F7574206F6620726160
:100FE0006E67650A00536572766F20003A20002014
:100FF000536572766F200050726F6265205A204FE1
:1010000066667365743A20004F66660A004661643E
:1010100065204865696768742000426564204C65F6
:1010200076656C696E6720004661696C6564207442
:101030006F20656E61626C6520426564204C657648
:10104000656C696E670A0076616C69640A53746F37
:101050007261676520736C6F743A2000696E004D91
:1010600065736820697320003F55736520302074D4
:101070006F20003F496E76616C69642073746F72F3
:1010800061676520736C6F742E0A003F45455052AE
:101090004F4D2073746F72616765206E6F742061AD
:1010A0007661696C61626C652E0A004D657368201B
:1010B000706F696E742063616E6E6F74206265205C
:1010C0007265736F6C7665640A004D343231206945
:1010D0006E636F727265637420706172616D6574A6
:1010E00065722075736167650A004F666673657483
:1010F00073206170706C696564004572723A2054A7
:101100006F6F206661722100546F6F2066617220DC
:1011100066726F6D207265666572656E63652070BC
:101120006F696E740A00454550524F4D204F4B0A6F
:1011300000496E76616C69642065787472756465C7
:10114000720A00416374697665204578747275642B
:1011500065723A20000E00000F01000D000F010023
:101160000F0E0000000F000D000A4D657368206F20
:101170006E6C79207061727469616C6C7920706F2B
:1011800070756C617465642E0A0A0020616E6420BB
:1011900074616B652061206D6561737572656D6545
:1011A0006E742E0A006D6D20746869636B2E0A00E0
:1011B000427573696E65737320436172642069734D
:1011C000200052656D6F76652026206D6561737510
:1011D0007265206265640052656D6F766520736884
:1011E000696D00506C616365207368696D2026200D
:1011F0006D65617375726500506C6163652073681D
:10120000696D20756E646572206E6F7A7A6C650008
:101210004D65736820506F696E74204D65617375FC
:101220007265642061743A20000A4D657368206F0E
:101230006E6C79207061727469616C6C7920706F6A
:1012400070756C617465642E0A004D65617375720A
:101250006500506C616365207368696D2026206DA0
:10126000656173757265004D6F76696E6720746F86
:10127000206E65787400496E76616C6964206D61DA
:101280007020747970652E0A0A003F28462961642F
:10129000652068656967687420666F7220426564BE
:1012A000204C6576656C20436F7272656374696F5C
:1012B0006E206E6F7420706C61757369626C652E40
:1012C0000A0A003F43616E27742061637469766186
:1012D000746520616E64206465616374697661740D
:1012E00065206174207468652073616D6520746980
:1012F0006D652E0A0A00426F746820582026205916
:10130000206C6F636174696F6E73206D75737420E8
:101310006265207370656369666965642E0A0A00F8
:101320003F496E76616C69642067726964207369F5
:101330007A6520284A292073706563696669656447
:101340002028322D39292E0A0A003F2850296861A9
:1013500073652076616C756520696E76616C696471
:101360002028302D36292E0A0A003F28562965727A
:10137000626F7365206C6576656C20697320696D9A
:10138000706C61757369626C652028302D34292E6C
:101390000A0A003F285229657065746974696F6E86
:1013A00020636F756E7420696E76616C69642028A5
:1013B000312B292E0A0A00446F696E6720473239A3
:1013C000002073616E69747920636865636B7320B4
:1013D0007061737365642E0A0020207374617465F4
:1013E0003A004B696C6C2070696E206F6E203A0079
:1013F000202000592D41786973204D657368205075
:101400006F696E74732061743A2000202000582D9B
:1014100041786973204D65736820506F696E7473ED
:101420002061743A20004D4553485F595F44495349
:10143000542020004D4553485F585F444953542081
:101440002000475249445F4D41585F504F494E5428
:10145000535F59202000475249445F4D41585F5027
:101460004F494E54535F582020004D4553485F4D1F
:1014700041585F592020284D494E282828283430CB
:101480003029202F203229202B20283430302920C9
:101490002F203229202D202831292C2034303029AA
:1014A000293D004D4553485F4D41585F5820202845
:1014B0004D494E2828282834303029202F20322921
:1014C000202B202834303029202F203229202D2095
:1014D0002831292C2034303029293D004D455348EE
:1014E0005F4D494E5F592020284D41582828282813
:1014F00034303029202F203229202D20283430303C
:1015000029202F203229202B20312C203029293D41
:10151000004D4553485F4D494E5F582020284D41AE
:10152000582828282834303029202F203229202DEF
:10153000202834303029202F203229202B20312C14
:10154000203029293D007A70726F62655F7A6F667C
:10155000667365743A2000706C616E6E65722E7AE7
:101560005F666164655F686569676874203A20003A
:1015700055424C206F626A65637420636F756E74A8
:101580003A2000204C6F616465642E004D657368DD
:1015900020004E6F204D657368204C6F6164656458
:1015A0002E003A2000454550524F4D2044756D7035
:1015B0003A0A002066726F6D2063757272656E74F0
:1015C000206D6573682E0A005375627472616374CE
:1015D000696E67206D65736820696E20736C6F7427
:1015E00020003F557365203020746F20003F496E06
:1015F00076616C69642073746F7261676520736CC7
:101600006F742E0A003F557365203020746F2000E0
:101610003F53746F7261676520736C6F7420232071
:1016200072657175697265642E0A003F45455052B6
:101630004F4D2073746F72616765206E6F74206107
:101640007661696C61626C652E0A004D6573682075
:1016500045646974696E672053746F7070656400C7
:10166000446F6E652045646974696E67204D6573CB
:10167000680A00446F6E652045646974696E67206E
:101680004D6573680046696E652054756E696E67B6
:10169000204D6573680028582C5929206F75747384
:1016A000696465207072696E7461626C6520726134
:1016B000646975732E0A004F6666736574206F75D2
:1016C00074206F6620626F756E64732E2028302040
:1016D000746F2031306D6D290A0A0064115F115A50
:1016E0001155115D0A0062656420706C616E6520A1
:1016F0006E6F726D616C203D205B00436F756C6492
:10170000206E6F7420636F6D706C657465204C5330
:10171000462100436F727265637465645F5A3D00D1
:101720003F4572726F722070726F62696E672070CF
:101730006F696E742E202041626F7274696E67202B
:101740006F7065726174696F6E2E0A00436F7272FA
:1017500065637465645F5A3D00436F7272656374BC
:1017600065645F5A3D00436F727265637465645FC0
:101770005A3D00646F6E650A00496E73756666694E
:101780006369656E7420646174610A0045787472DF
:1017900061706F6C6174696E67206D6573682E2E61
:1017A0002E0020496E76616C6964206578747275CC
:1017B0006465722000656E7175657565696E672078
:1017C00022006F6B00526573656E643A20004B49CE
:1017D0004C4C45442E200053544F505045442E202D
:1017E000005072696E7465722073746F70706564F6
:1017F0002064756520746F206572726F72732E207D
:1018000046697820746865206572726F7220616E17
:101810006420757365204D39393920746F207265E5
:1018200073746172742E202854656D7065726174D2
:101830007572652069732072657365742E20536517
:1018400074206974206166746572207265737461B6
:101850007274696E67290A004E6F20436865636B76
:1018600073756D2077697468206C696E65206E757C
:101870006D6265722C204C617374204C696E653A00
:1018800020004E6F20436865636B73756D20776928
:101890007468206C696E65206E756D6265722C20AF
:1018A0004C617374204C696E653A2000636865630F
:1018B0006B73756D206D69736D617463682C204C5A
:1018C000617374204C696E653A20004C696E652026
:1018D0004E756D626572206973206E6F74204C6165
:1018E0007374204C696E65204E756D6265722B3184
:1018F0002C204C617374204C696E653A20004D3188
:101900003130004D333100534420726561642065ED
:1019100072726F720A00446F6E65207072696E7425
:10192000696E672066696C650A004D6573682056AC
:10193000616C69646174696F6E2053746F70706557
:10194000642E00696E206D6F76655F746F282920A4
:10195000666565645F76616C756520666F72205898
:10196000593A004C656176696E6720473236004708
:1019700032362048656174696E67204E6F7A7A6CE2
:10198000652E004732362048656174696E672042D3
:1019900065642E00446F6E65205072696D696E67D4
:1019A000004669786564204C656E677468205072E3
:1019B000696D652E00557365722D436F6E74726F7D
:1019C0006C6C6564205072696D65002C2065793DF2
:1019D0000029202D3E202865783D002C2073793D7C
:1019E0000020436F6E6E656374696E67207769745B
:1019F0006820766572746963616C206C696E65201D
:101A00002873783D002C2065793D0029202D3E204B
:101A10002865783D002C2073793D0020436F6E6E61
:101A2000656374696E67207769746820686F72698E
:101A30007A6F6E74616C206C696E65202873783DD6
:101A4000004C656176696E6720473236003F5370FF
:101A50006563696669656420582C5920636F6F72ED
:101A600064696E617465206F7574206F6620626FA3
:101A7000756E64732E0A003F285229657065617483
:101A80002076616C7565206E6F7420706C61757363
:101A900069626C653B206D757374206265206174AA
:101AA000206C6561737420312E0A003F53706563AA
:101AB0006966696564206E6F7A7A6C652074656DFD
:101AC0007065726174757265206E6F7420706C61E0
:101AD000757369626C652E0A003F537065636966B1
:101AE0006965642066696C616D656E742073697ADE
:101AF00065206E6F7420706C61757369626C652E01
:101B00000A003F5370656369666965642070726995
:101B10006D65206C656E677468206E6F7420706CE4
:101B200061757369626C652E0A003F537065636965
:101B300066696564206E6F7A7A6C652073697A6570
:101B4000206E6F7420706C61757369626C652E0A0B
:101B5000003F52657472616374696F6E204D756CDD
:101B60007469706C696572206D757374206265208C
:101B70007370656369666965642E0A003F5370651A
:101B80006369666965642052657472616374696F24
:101B90006E204D756C7469706C696572206E6F741F
:101BA00020706C61757369626C652E0A003F53701A
:101BB00065636966696564206C6179657220686532
:101BC00069676874206E6F7420706C6175736962E8
:101BD0006C652E0A003F5370656369666965642011
:101BE0006265642074656D706572617475726520DC
:101BF0006E6F7420706C61757369626C6520283437
:101C0000302D31343043292E0A0047323620636F9D
:101C10006D6D616E6420737461727465642E2057FB
:101C2000616974696E6720666F72206865617465AA
:101C3000722873292E0A0025753A25303275002541
:101C40003032753A253032750025756420253032E2
:101C5000753A2530327500202020202020002020D9
:101C6000202000092000000000000000000000000B
:101C700000003FFFF0000000000000000000000036
:101C800000380070000000000000000000000000AC
:101C900030FC3000000000000000000000000020C8
:101CA000FC10000000000000000000000000207890
:101CB00010000000000000000000000000203010B4
:101CC0000000000000000000000000002C00D03FD9
:101CD000C0000000000000002082002E31D07FE014
:101CE000000000000000001041002F7BD07FE000CA
:101CF0000000000000001041002F7BD07FE00000BA
:101D000000000000002082002E31D03FC000000003
:101D1000000000004104002C00D03FC00000000083
:101D20000000008208002030107FE000000000006A
:101D300000008208002078107FE000000000000012
:101D40000041040020FC107FE000000000000000C3
:101D500020820030FC301F800000000000000000E6
:101D600000003800700F0000000000000000FFFFBE
:101D7000C03FFFF0060000000000000000FFFFC0B1
:101D80000000000000000000000000000000003F14
:101D9000FFF000000000000000000000000038001C
:101DA00070000000000000000000000000318630DC
:101DB0000000000000000000000000002387100069
:101DC00000000000000000000000002787900000D5
:101DD000000000000000000000002F87D00000007D
:101DE0000000000000000000002F03D03FC00000F2
:101DF00000000000002082002030107FE000000082
:101E0000000000001041002078107FE0000000007A
:101E10000000001041002078107FE000000000006A
:101E200000002082002030103FC0000000000000B1
:101E3000004104002F03D03FC0000000000000005C
:101E40008208002F87D07FE00000000000000082A1
:101E500008002787907FE000000000000000410498
:101E6000002387107FE000000000000000208200B7
:101E70003186301F800000000000000000000038A4
:101E800000700F0000000000000000FFFFC03FFFD7
:101E9000F0060000000000000000FFFFC00000008E
:101EA000526170746F72322052656164792E0050F5
:101EB00072696E74696E672E2E2E005072696E7490
:101EC000207061757365640053746F7720424C54C1
:101ED0006F756368004D32383020503020533930F0
:101EE000004465706C6F7920424C546F75636800D4
:101EF0004D3238302050302053313000424C546F36
:101F00007563682053656C662D54657374004D329B
:101F100038302050302053313230005265736574B0
:101F200020424C546F756368004D32383020503079
:101F30002053313630004D61696E005072696E7405
:101F40002061626F72746564004D35004D33004C42
:101F500061736572004368616E67652066696C61D4
:101F60006D656E74004368616E67652066696C61BB
:101F70006D656E74004D36303020423000436F6E18
:101F800066696775726174696F6E0054656D70651E
:101F9000726174757265004D6F74696F6E0054756F
:101FA0006E65004E6F20534420636172640050726E
:101FB000696E742066726F6D2053440053746F70A5
:101FC000207072696E74004F666600526573756D9D
:101FD00065207072696E740050617573652070724F
:101FE000696E74004F6E20004F6666004F6E2000D1
:101FF00043617365206C6967687400496E666F2081
:1020000073637265656E003F5A206F7574206F664A
:102010002072616E676520282D323020746F203267
:1020200030290A003A200050726F6265205A204F12
:10203000666673657400286E6F2066696C6529009A
:1020400043757272656E742066696C653A20005340
:1020500044207072696E74696E67206279746520BD
:10206000004E6F74205344207072696E74696E67FD
:102070000A002569730025696D20256973002569AB
:10208000682025696D20256973002569642025690C
:10209000682025696D2025697300256979202569E7
:1020A00064202569682025696D20256973006F6BA0
:1020B0000020573A0042656420636F6F6C696E6759
:1020C0002E2E2E004265642068656174696E672E4D
:1020D0002E2E0023646566696E6520444546415591
:1020E0004C545F4B64200023646566696E65204430
:1020F000454641554C545F4B692000236465666931
:102100006E652044454641554C545F4B702000504D
:102110004944204175746F74756E652066696E69F7
:1021200073686564212050757420746865206C6143
:102130007374204B702C204B6920616E64204B64BB
:1021400020636F6E7374616E74732066726F6D209E
:1021500062656C6F7720696E746F20436F6E66697D
:102160006775726174696F6E2E680A005049442069
:102170004175746F74756E65206661696C65642164
:102180002074696D656F75740A00453120544845A7
:10219000524D414C2052554E4157415900546865AB
:1021A000726D616C2052756E6177617900453120E6
:1021B00048656174696E67206661696C6564004892
:1021C000656174696E67206661696C656400504979
:1021D00044204175746F74756E65206661696C6525
:1021E00064212054656D7065726174757265207428
:1021F0006F6F20686967680A00204B643A200020EE
:102200004B693A2000204B703A20000A20436C6151
:102210007373696320504944200A002054753A20A2
:1022200000204B753A2000206D61783A2000206D27
:10223000696E3A200020643A200020626961733A96
:102240002000504944204175746F74756E65207389
:10225000746172740A00504944204175746F74753A
:102260006E65206661696C65642120426164206549
:1022700078747275646572206E756D6265720A009D
:102280004572723A207574663820666F6E74206EDF
:102290006F7420696E697469616C697A65642E0077
:1022A0004572723A207574663820666F6E74206EBF
:1022B0006F7420696E697469616C697A65642E0057
:1022C0004572723A207574663820666F6E74206E9F
:1022D0006F7420696E697469616C697A65642E0037
:1022E0000000803FB76DEB41B76D67424992AC4249
:1022F000B76DE54292240F4349922B4300004843B7
:10230000B76D6443B76D804392A48E436EDB9C43EC
:102310004912AB432549B9430080C743DCB6D543D6
:102320000000803FB76DEB41B76D67424992AC4208
:10233000B76DE54292240F4349922B430000484376
:10234000B76D6443B76D804392A48E436EDB9C43AC
:102350004912AB432549B9430080C743DCB6D54396
:102360002C2065653D002C207A653D002C20796588
:102370003D002075626C2E6C696E655F746F5F64E2
:10238000657374696E6174696F6E5F6361727465A1
:102390007369616E2878653D0020746F6F206C6FE3
:1023A0006E6720657874727573696F6E20707265E0
:1023B00076656E7465640A0020636F6C64206578CE
:1023C00074727573696F6E2070726576656E746570
:1023D000640A00486F6D6520257325732573206698
:1023E00069727374002066697273740A005A005926
:1023F000005800486F6D652000486F6D696E67205A
:102400006661696C6564000000C8430000C8430051
:1024100000FA43000000000000000000000000007F
:102420000000000000C84300000000000048420017
:1024300000484200008040000000005761726E6951
:102440006E673A20486F6D696E672042756D702027
:1024500044697669736F72203C20310A00020204DD
:102460000000A0400000A040000000400000C84361
:102470000000C8430000FA43FF01FF0000210024D0
:102480000027002A002D0030003300010100000465
:102490000107010A0100002200250028002B002E60
:1024A000003100340002010000050108010B014D5C
:1024B00036303020423020542564004D37303120F2
:1024C000542564004D373032203B2564004D3730B1
:1024D0003220542564004368616E67652066696C2C
:1024E000616D656E7400507265686561742041426B
:1024F00053005072656865617420504C4100436818
:10250000616E67652066696C616D656E740050521E
:10251000494E542050415553454400554E4C4F416F
:10252000442046494C414D454E54004C4F414420B7
:1025300046494C414D454E54005075726765206DBB
:102540006F726500436F6E74696E75650052455316
:10255000554D45204F5054494F4E533A0020204E80
:102560006F7A7A6C653A20006368616E6765006F08
:1025700066207468652066696C616D656E740057CD
:1025800061697420666F7220737461727400202018
:102590004E6F7A7A6C653A2000200066696C616D36
:1025A000656E7420756E6C6F61640057616974208C
:1025B000666F720020204E6F7A7A6C653A20002098
:1025C00000506C6561736520776169742E2E2E0052
:1025D00048656174696E67206E6F7A7A6C65002059
:1025E000204E6F7A7A6C653A20002000686561742D
:1025F000206E6F7A7A6C652E00507265737320625C
:102600007574746F6E20746F0020204E6F7A7A6C30
:10261000653A2000746F20636F6E74696E75652E65
:102620002E2E00616E642070726573732062757463
:10263000746F6E00496E736572742066696C616DAB
:10264000656E740020204E6F7A7A6C653A20002007
:102650000066696C616D656E74206C6F6164005713
:1026600061697420666F720020204E6F7A7A6C6503
:102670003A2000200066696C616D656E742070758B
:10268000726765005761697420666F7200746F200D
:10269000726573756D65005761697420666F72208D
:1026A0007072696E74004D3234004D3233202573E0
:1026B00000486F74656E6420746F6F20636F6C6484
:1026C0000A00556E6B6E6F776E20636F6D6D616E75
:1026D000643A20220053442063617264206F6B0AC5
:1026E000006F70656E526F6F74206661696C65640F
:1026F0000A00766F6C756D652E696E69742066616F
:10270000696C65640A00534420696E6974206661CF
:10271000696C0A0057726974696E6720746F20666D
:10272000696C653A20006F70656E206661696C6542
:10273000642C2046696C653A20006F70656E2066D7
:1027400061696C65642C2046696C653A20004669B5
:102750006C652073656C65637465640A0020536959
:102760007A653A200046696C65206F70656E656415
:102770003A2000667265736800646F696E670020B6
:1027800066696C653A20004E6F772000454E442004
:10279000535542524F5554494E450A002220706FFE
:1027A00073002220706172656E743A2200535542A4
:1027B000524F5554494E452043414C4C2074617250
:1027C0006765743A22004B494C4C45442E200074F6
:1027D0007279696E6720746F2063616C6C20737509
:1027E000622D67636F64652066696C657320776925
:1027F000746820746F6F206D616E79206C657665EA
:102800006C732E204D4158206C6576656C20697381
:102810003A004572726F723A006F70656E206661A1
:10282000696C65642C2046696C653A200024F4D4F8
:102830003050C38E20C2A24017828B7011127A9141
:102840000D816CD90AA861E108C758660761514338
:10285000061E4B5D05C145A7041A411104093D98A8
:1028600003713931034036DB0265339102D43054B1
:1028700002802E1D02632CEE01752AC501B028A02E
:1028800001102781018F2564012B244B01E02234A4
:1028900001AC211F018D200D01801FFC00841EED65
:1028A00000971DDF00B81CD200E61BC600201BBC31
:1028B00000641AB200B219A8000A19A0006A189997
:1028C00000D117910040178B00B516840031167E99
:1028D00000B31579003A157300C7146F0058146AD5
:1028E00000EE1366008813630025135E00C7125BB9
:1028F000006C12570015125400C111510070114F95
:102900000021114B00D61049008D1047004610449D
:102910000002104200C00F4000800F3E00420F3CFA
:1029200000060F3B00CB0E3800930E37005C0E35CF
:1029300000270E3400F30D3200C10D3100900D3030
:1029400000600D2E00320D2D00050D2C00D90C2B32
:1029500000AE0C2900850C29005C0C2700350C27E3
:10296000000E0C2600E80B2400C40B2400A00B234F
:10297000007D0B23005A0B2100390B2100180B207E
:1029800000F80A1F00D90A1E00BB0A1E009D0A1D7E
:1029900000800A1D00630A1C00470A1B002C0A1B4A
:1029A00000110A1A00F7091A00DD091900C40919F3
:1029B00000AB091900920917007B09180063091779
:1029C000004C09160036091600200916000A0915E0
:1029D00000F5081500E0081400CC081400B808142D
:1029E00000A4081400900813007D0812006B08135F
:1029F000005808120046081200340811002308117C
:102A0000001208110001081100F0071000E0071083
:102A100000D0071000C0071000B0070F00A107107A
:102A20000091070E0083070F0074070F0065070E63
:102A30000057070E0049070E003B070D002E070E3A
:102A40000020070D0013070D0006070D00F9060C06
:102A500000ED060D00E0060C00D4060C00C8060CC4
:102A600000BC060C00B0060C00A4060B0099060C76
:102A7000008D060B0082060B0077060B006C060B20
:102A80000061060A0057060B004C060A0042060ABF
:102A90000038060A002E060A0024060A001A060A52
:102AA000001006090007060A00FD050900F40509E3
:102AB00000EB050900E2050900D9050900D0050968
:102AC00000C7050900BE050900B5050800AD0508E9
:102AD00000A50509009C050800940508008C050860
:102AE00000840508007C050800740508006C0507D3
:102AF00000650508005D050700560508004E05073E
:102B000000470507004005080038050700310507A4
:102B1000002A050700230507001C05060016050707
:102B2000000F0507000805060002050700FB040664
:102B300000F5040700EE040600E8040600E20407BE
:102B400000DB040600D5040600CF040600C9040615
:102B500000C3040600BD040600B7040600B1040566
:102B600000AC040600A6040600A00405009B0406B1
:102B70000095040500900406008A040500850405FC
:102B800000800406007A0405007504050070040541
:102B9000006B04050066040500610405005C040583
:102BA0000057040500520405004D040500480405C3
:102BB00000430405003E0404003A04050035040502
:102BC00000300404002C040500270404002304053D
:102BD000001E0404001A0404001604050011040475
:102BE000000D0404000904050004040400000404AA
:102BF00000FC030400F8030400F4030400F00304E1
:102C000000EC030400E8030400E4030400E0030410
:102C100000DC030400D8030400D4030400D0030440
:102C200000CC030400C8030300C503030024F4041C
:102C3000D9201BC40C5C0E9804C4095F026507719F
:102C400001F405F900FB04B30048048700C10369DF
:102C5000005803550003034500BE023A00840231C8
:102C60000053022A002902250004022000E4011C6E
:102C700000C8011900AF0117009801140084011366
:102C800000710110006101100051010E0043010D9F
:102C90000036010B002B010B0020010B0015010970
:102CA000000C01090003010800FB000800F3000804
:102CB00000EB000700E4000600DE000600D8000676
:102CC00000D2000600CC000500C7000500C20005C8
:102CD00000BD000400B9000400B5000400B1000408
:102CE00000AD000400A9000400A5000300A2000339
:102CF000009F0004009B0003009800030095000261
:102D00000093000300900003008D0002008B00037D
:102D10000088000200860002008400030081000297
:102D2000007F0002007D0002007B000200790002AB
:102D300000770001007600020074000200720001BA
:102D400000710002006F0002006D0001006C0002C3
:102D5000006A0001006900020067000100660001CE
:102D600000650001006400020062000100610001D2
:102D700000600001005F0002005D0001005C0001D6
:102D8000005B0001005A00010059000100580001D9
:102D900000570001005600010055000100540001D9
:102DA00000530000005300010052000100510001D7
:102DB00000500001004F0001004E0000004E0001D5
:102DC000004D0001004C0001004B0000004B0001D1
:102DD000004A0001004900010048000000480001CD
:102DE00000470001004600000046000100450000C9
:102DF00000450001004400010043000000430001C1
:102E000000420000004200010041000000410001BA
:102E100000400001003F0000003F0001003E0000B4
:102E2000003E0001003D0000003D0001003C0000AC
:102E3000003C0000003C0001003B0000003B0001A2
:102E4000003A0000003A000100390000003900019A
:102E50000038000000380000003800010037000092
:102E60000037000100360000003600000036000187
:102E7000003500000035000000350001003400007E
:102E80000034000000340001003300000033000073
:102E90000033000100320000003200000032000167
:102EA000003100000031000000310001003000005E
:102EB0000030000000300001002F0000002F000053
:102EC000002F0000002F0001002E0000002E000047
:102ED000002E0001002D0000002D0000002D00003C
:102EE000002D0001002C0000002C0000002C000030
:102EF000002C0001002B0000002B0000002B000024
:102F0000002B0001002A0000002A0000002A000017
:102F1000002A00010029000000290000002900000B
:102F200000290000002900010028000000280000FE
:102F300000280000002800000028000100270000F1
:102F400000270000002700000027000000270001E4
:102F500000260000002600000026000000260000D9
:102F600000260001002500000025000000250000CB
:102F700000250000002500000025000100240000BD
:102F800000240000002400000024000000240001B0
:102F900000230000002300000023000000230000A5
:102FA0000023000000230000002300010022000095
:102FB0000022000000220000002200000022000089
:102FC000002200010021000000210000002100007B
:102FD000002100000021000000210000002100016C
:102FE0000020000000200000002000000020000061
:102FF0000020000000200000002000000020000150
:10300000001F0000001F0000001F0000001F000044
:10301000001F0000001F0000001F0001001E000034
:10302000001E0000001E0000001E000000C2310053
:10303000001C260000F4190000D80F0000EB080067
:1030400000C0040000750200004001000009FFFFFD
:10305000FFFFFF0001010101016265640A002C20ED
:1030600073797374656D2073746F7070656421205B
:103070004865617465725F49443A20004265642086
:1030800068656174696E67206661696C6564004893
:10309000656174696E67206661696C6564004531BD
:1030A0002048656174696E67206661696C656400BB
:1030B00048656174696E67206661696C6564005675
:1030C000652D6A65726B0056652D6A65726B0056D8
:1030D000652D6A65726B00567A2D6A65726B0056B3
:1030E0007A2D6A65726B0056792D6A65726B00568F
:1030F000792D6A65726B0056792D6A65726B005680
:10310000782D6A65726B0056782D6A65726B005671
:10311000782D6A65726B00416476616E6365642028
:1031200053657474696E6773004573746570732FAB
:103130006D6D004573746570732F6D6D005A7374F7
:103140006570732F6D6D005A73746570732F6D6D9C
:10315000005973746570732F6D6D005973746570C9
:10316000732F6D6D005873746570732F6D6D0058FB
:1031700073746570732F6D6D00416476616E636565
:10318000642053657474696E6773004D343238007F
:10319000496E697469616C697A6520454550524F82
:1031A0004D00526573657420424C546F756368001E
:1031B0004D323830205030205331363000424C549C
:1031C0006F7563682053656C662D54657374004D8C
:1031D00032383020503020533132300046696C6133
:1031E0006D656E740054656D70657261747572659D
:1031F0000053746570732F6D6D004A65726B0041EA
:103200006363656C65726174696F6E0056656C6F9F
:10321000636974790053657420686F6D65206F660B
:1032200066736574730050726F6265205A204F6632
:103230006673657400436F6E666967757261746961
:103240006F6E004C6F6164206D6D004C6F61642087
:103250006D6D004C6F6164206D6D00556E6C6F611B
:1032600064206D6D00556E6C6F6164206D6D00554E
:103270006E6C6F6164206D6D0046696C2E20446930
:10328000612E0046696C2E204469612E004F6666EF
:10329000004F6E20004520696E206D6D3300416443
:1032A00076616E6365204B00416476616E636520D4
:1032B0004B00416476616E63656420536574746984
:1032C0006E67730043616E6E6F7420656E74657215
:1032D000207375626469723A2000022E2E004D61DF
:1032E000696E004F7574707574204D657368204D5C
:1032F0006170004F6666205072696E74657220427C
:1033000061636B75700047323920532D31004F7562
:103310007470757420666F722043535600473239BB
:10332000205431004F757470757420666F72204898
:103330006F73740047323920543000556E696669E6
:10334000656420426564204C6576656C696E670033
:103350004D657368204C6576656C696E67004564E1
:103360006974204D6573680056616C6964617465A9
:10337000204D657368004D616E75616C6C792042FB
:1033800075696C64204D657368004732392049398E
:1033900039390A4732392050322042205430004215
:1033A00075696C64204D65736800556E6966696562
:1033B0006420426564204C6576656C696E670037F1
:1033C000205361766520426564204D657368003640
:1033D0002046696E652054756E6520416C6C00470F
:1033E0003239205034205239393920540035205692
:1033F000616C6964617465204D65736800342046B2
:10340000696E652054756E6520416C6C00473239D9
:103410002050342052393939205400332056616C01
:103420006964617465204D657368003220536D6175
:1034300072742046696C6C2D696E004732392050D9
:10344000332054300031204275696C6420436F6C26
:1034500064204D657368004732380A47323920507E
:103460003100556E696669656420426564204C656B
:1034700076656C696E6700466164652048656967BA
:103480006874004661646520486569676874004F28
:1034900075747075742055424C20496E666F0047F4
:1034A000323920570055424C20546F6F6C73004FD7
:1034B0007574707574204D657368204D6170004D92
:1034C0006573682053746F72616765004D6573683A
:1034D000204564697400537465702D42792D5374CE
:1034E00065702055424C004465616374697661746F
:1034F000652055424C0047323920440041637469CD
:10350000766174652055424C004732392041004DA8
:103510006F74696F6E0044697361626C65207374C7
:10352000657070657273004D3834004C6576656C5B
:1035300020636F726E65727300556E6966696564AB
:1035400020426564204C6576656C696E6700486F43
:103550006D65205A00473238205A00486F6D65204B
:103560005900473238205900486F6D652058004790
:1035700032382058004175746F20686F6D650047C0
:103580003238004D6F76652061786973004D61694E
:103590006E004D6F76652058004D6F76652059009E
:1035A0004D6F7665205A00457874727564657200B7
:1035B000290A002062797465733B206372632000DE
:1035C00053657474696E67732053746F72656420F9
:1035D0002800454550524F4D206461746173697AEB
:1035E00065206572726F722E0A003F4D6573682008
:1035F000746F6F2062696720666F72204545505274
:103600004F4D2E0A0055424C2053797374656D203E
:10361000726573657428290A00206C6F61646564A3
:103620002066726F6D2073746F726167652E0A0079
:103630004D65736820002E0A003F43616E27742099
:10364000656E61626C65200020696E697469616CE9
:10365000697A65642E0A0A00290A00206279746575
:10366000733B2063726320002073746F7265642063
:1036700073657474696E67732072657472696576B8
:103680006564202800202863616C63756C61746533
:103690006429210A0020213D2000454550524F4D0C
:1036A00020435243206D69736D61746368202D203F
:1036B0002873746F7265642920002053697A653A13
:1036C0002000496E6465783A2000204D61726C6973
:1036D0006E3D563536290A0028454550524F4D3D1E
:1036E00000454550524F4D2076657273696F6E20CC
:1036F0006D69736D61746368200043617264207248
:10370000656D6F766564004361726420696E7365F0
:10371000727465640000060C00FE07022903BF01F5
:103720007FFE08FE08FE05080806000040F0C88875
:1037300088987810050808060000C0F888888888EE
:1037400088F80505050600012030F8302005080836
:103750000600002070F820202020E005090906005E
:10376000FF2070A8A8B8888870200509090600FF06
:10377000E080C0B0A8283028280509090600FFF815
:10378000A88888888888A8F8050A0A0600FE2050BC
:1037900050505088A8A8887003030306000340A077
:1037A00040FFFFFFFFFFFFFFFFFFFFFFFFFFFFFFE8
:1037B000FFFFFFFFFFFFFF0000000605FF010707F7
:1037C00006020080808080800080030303060105DC
:1037D000A0A0A005060606000050F85050F85005BD
:1037E00009090600FF2070A8A07028A8702005070E
:1037F00007060000C8C81020409898050707060073
:103800000040A0A040A89068010303060205808044
:10381000800309090601FF2040408080804040204D
:103820000309090601FF8040402020204040800518
:10383000070706000020A8702070A82005050506CF
:1038400000012020F820200203030601FFC0408071
:10385000050101060003F8020202060100C0C005CE
:1038600007070600000810102040408005070706E3
:103870000000708898A8C8887003070706010040F8
:10388000C040404040E0050707060000708808106F
:103890002040F8050707060000F808103008887077
:1038A00005070706000010305090F81010050707B4
:1038B000060000F880F00808887005070706000079
:1038C000304080F0888870050707060000F808106F
:1038D000102020200507070600007088887088885F
:1038E00070050707060000708888780810600205D8
:1038F00005060100C0C000C0C00206060601FFC0E8
:10390000C000C04080030505060101204080402022
:10391000050303060002F800F8030505060101800F
:103920004020408005070706000070881020200016
:10393000200507070600007088B8A8B88070050742
:1039400007060000708888F8888888050707060041
:1039500000F04848704848F00507070600007088E6
:103960008080808870050707060000F048484848B6
:1039700048F0050707060000F88080F08080F80511
:103980000707060000F88080F080808005070706A2
:1039900000007088808098887005070706000088FE
:1039A0008888F8888888030707060100E0404040BF
:1039B0004040E00507070600003810101010906026
:1039C0000507070600008890A0C0A090880507079B
:1039D000060000808080808080F8050707060000D0
:1039E00088D8A8888888880507070600008888C8BE
:1039F000A898888805070706000070888888888846
:103A000070050707060000F08888F08080800507B1
:103A10000706000070888888A890680507070600D8
:103A200000F08888F0A090880507070600007088DD
:103A30008070088870050707060000F82020202005
:103A40002020050707060000888888888888700578
:103A50000707060000888888885050200507070659
:103A6000000088888888A8A85005070706000088F5
:103A70008850205088880507070600008888502055
:103A8000202020050707060000F80810204080F8D5
:103A90000309090601FFE080808080808080E005C6
:103AA000070706000080404020101008030909069F
:103AB00001FFE020202020202020E0050303060055
:103AC000052050880501010600FEF80303030601E6
:103AD00005804020050505060000700878887805F7
:103AE00007070600008080F0888888F00505050635
:103AF00000007080808870050707060000080878BD
:103B0000888888780505050600007088F0807005B3
:103B10000707060000304840E04040400507070620
:103B200000FE708888887808700507070600008006
:103B300080F0888888880307070601004000C0409D
:103B40004040E00409090601FE100030101010107A
:103B5000906005070706000080808890E090880349
:103B60000707060100C04040404040E0050505064B
:103B70000000D0A8A8A8A8050505060000B0C888C0
:103B80008888050505060000708888887005070785
:103B90000600FEF0888888F080800507070600FE92
:103BA00078888888780808050505060000B0C88070
:103BB000808005050506000078807008F00507077D
:103BC0000600002020F8202020180505050600002A
:103BD0008888889868050505060000888888502030
:103BE0000505050600008888A8A8500505050600FB
:103BF0000088502050880507070600FE88888850F6
:103C0000204080050505060000F8102040F8030953
:103C1000090601FF20404040804040402001090942
:103C20000602FF80808080808080808003090906F2
:103C300001FF8040404020404040800503030600D3
:103C40000248A890FF4E6F206D6F76652E003F4BA7
:103C50002076616C7565206F7574206F66207261C7
:103C60006E67652028302D3130292E0A0041647698
:103C7000616E6365204B3D0043617365206C69672D
:103C800068743A206F6E0A0043617365206C69673F
:103C900068743A206F66660A004D3630303A205418
:103CA0006F6F20636F6C6400486F74656E6420747E
:103CB0006F6F20636F6C640A00496E7365727420C5
:103CC00066696C616D656E7420616E6420707265EA
:103CD000737320627574746F6E0A0050726573732B
:103CE00020627574746F6E20746F20686561742033
:103CF0006E6F7A7A6C650A00496E7365727420661D
:103D0000696C616D656E7420616E6420707265739C
:103D10007320627574746F6E20286F72204D31307D
:103D200038290A00496E736572742066696C616D8A
:103D3000656E7420616E64207072657373206275A5
:103D400074746F6E20286F72204D313038290A004C
:103D50004361703A00536C6565702E2E2E00205A18
:103D60003A200020593A200042656420583A200049
:103D70005049442D44005049442D44005049442D9D
:103D800049005049442D49005049442D50005049A4
:103D9000442D50002008204661637400200820460E
:103DA000616374002008204D6178002008204D6177
:103DB00078002008204D6178002008204D696E00B1
:103DC0002008204D696E002008204D696E004F6666
:103DD00066004F6E20004175746F74656D70004110
:103DE0006476616E6365642053657474696E67738D
:103DF0000053746F72652073657474696E67730025
:103E00004265640042656400426564004E6F7A7AE0
:103E10006C65004E6F7A7A6C65004E6F7A7A6C65CD
:103E20000046616E2073706565640046616E2073A4
:103E3000706565640046616E20737065656400435B
:103E40006F6E66696775726174696F6E0056547241
:103E50006176206D696E005654726176206D696ED0
:103E6000005654726176206D696E00566D696E0061
:103E7000566D696E00566D696E00566D617820450D
:103E800000566D6178204500566D617820450056DA
:103E90006D6178205A00566D6178205A00566D6128
:103EA00078205A00566D6178205900566D6178204F
:103EB0005900566D6178205900566D617820580080
:103EC000566D6178205800566D6178205800416425
:103ED00076616E6365642053657474696E67730000
:103EE000416D6178204500416D6178204500416D4C
:103EF0006178205A00416D6178205A00416D6178E7
:103F0000205900416D6178205900416D6178205839
:103F100000416D6178205800412D74726176656CA6
:103F200000412D74726176656C00412D726574726A
:103F300061637400412D7265747261637400416342
:103F400063656C00416363656C00416476616E6318
:103F500065642053657474696E6773005A5F5354C7
:103F600045505F50494E005A5F4D494E5F50494E93
:103F7000005A5F454E41424C455F50494E005A5FE2
:103F80004449525F50494E005A5F43535F50494E77
:103F900000595F535445505F50494E00595F4D41A1
:103FA000585F50494E00595F454E41424C455F5065
:103FB000494E00595F4449525F50494E00595F4392
:103FC000535F50494E00585F535445505F50494E1F
:103FD00000585F4D494E5F50494E00585F454E4175
:103FE000424C455F50494E00585F4449525F50492A
:103FF0004E00585F43535F50494E0053535F504942
:104000004E005350494E444C455F4C415345525F1E
:1040100050574D5F50494E005350494E444C455FF8
:104020004C415345525F454E41424C455F50494ECD
:1040300000534552564F335F50494E005345525638
:104040004F325F50494E00534552564F315F5049F1
:104050004E00534552564F305F50494E0053445323
:10406000530053445F4445544543545F50494E0008
:1040700053434B5F50494E0052414D50535F4438BB
:104080005F50494E0052414D50535F4431305F50B4
:10409000494E0050535F4F4E5F50494E004D4F53B5
:1040A000495F50494E004D49534F5F50494E004DB6
:1040B0004158363637355F5353004C45445F5049BD
:1040C0004E004C43445F50494E535F5253004C43A3
:1040D000445F50494E535F454E41424C45004C436E
:1040E000445F50494E535F4437004C43445F50494E
:1040F0004E535F4436004C43445F50494E535F4437
:1041000035004C43445F50494E535F4434004B49A3
:104110004C4C5F50494E004845415445525F424522
:10412000445F50494E004845415445525F305F500E
:10413000494E0046494C5F52554E4F55545F5049C9
:104140004E0046414E5F50494E0045315F53544545
:10415000505F50494E0045315F454E41424C455FEE
:1041600050494E0045315F4449525F50494E004529
:10417000315F43535F50494E0045305F53544550C3
:104180005F50494E0045305F454E41424C455F50BF
:10419000494E0045305F4449525F50494E0045301A
:1041A0005F43535F50494E0045305F4155544F5F68
:1041B00046414E5F50494E00455F4D5558325F5065
:1041C000494E00455F4D5558315F50494E00455F9F
:1041D0004D5558305F50494E00434153455F4C495F
:1041E0004748545F50494E0042544E5F454E43008D
:1041F00042544E5F454E320042544E5F454E3100B0
:104200004245455045525F50494E004156525F531A
:10421000535F50494E004156525F53434B5F5049E4
:104220004E004156525F4D4F53495F50494E004139
:1042300056525F4D49534F5F50494E0054454D50C3
:104240005F4245445F50494E0054454D505F315FD9
:1042500050494E0054454D505F305F50494E004626
:10426000494C57494454485F50494E005458440003
:104270005258440020643A0020693A0020703A0005
:10428000496E76616C6964206578747275646572D4
:104290000A0043290A0061626C656420286D696E1A
:1042A0002074656D702000436F6C642065787472B3
:1042B00075646573206172652000433A2000423ABC
:1042C0002000413A200020202020434F4D00202094
:1042D000206E6F6E2D7374616E646172642050572E
:1042E0004D206D6F646500202020636F6D706172DA
:1042F0006520696E7465727275707420656E616296
:104300006C6564002020206F766572666C6F772084
:10431000696E7465727275707420656E61626C6529
:1043200064003A20002020202054494D534B004285
:104330003A2000202020205443435200413A2000DC
:104340002020202054434352002020202043533A71
:1043500020002020202057474D3A200050574D3A4A
:1043600020202534640050574D3A20202534640025
:1043700047004800000088008A008C00B300B400A9
:10438000000098009A009C00A800AA00AC00280138
:104390002A012C012020202054494D455200440080
:1043A00045006E00800081006F00B000B100700019
:1043B000900091007100A000A10072002001210175
:1043C000730020697320616C736F207469656420C9
:1043D000746F20746869732070696E0054494D458C
:1043E000523143000A202E002020002020506F72FE
:1043F000743A200050574D3A20202534640050571D
:104400004D3A20202534640050574D3A2020253461
:10441000640050574D3A20202534640050574D3ADF
:1044200020202534640050574D3A20202534640064
:1044300050574D3A20202534640050574D3A2020E3
:104440002534640050574D3A2020253464005057DD
:104450004D3A20202534640050574D3A2020253411
:10446000640050574D3A20202534640050574D3A8F
:1044700020202534640050574D3A20202534640014
:1044800050574D3A20202534640050574D3A202093
:1044900025346400496E70757420203D20004F75EE
:1044A00074707574203D20002020200020202041C1
:1044B0006E616C6F6720696E203D2025356C64004D
:1044C0003C756E757365642F756E6B6E6F776E3E9F
:1044D0000020284125326429202000253364200053
:1044E000257350494E3A2000416E616C6F67206918
:1044F0006E203D2025356C640070726F74656374A6
:1045000065642000202841253264292020002533BD
:10451000642000257350494E3A2000704200016C1F
:104520004201015F423B0054424300494245003C86
:104530004244002F42320122423301164234010B21
:1045400042350100422501F8411F01F0412101E8F7
:10455000412301D9410501CE412801C3412A01B8B7
:10456000412C01A84109019E412A0193411C01856A
:1045700041180179411A016F412C01644122015611
:10458000411E014A412401424106013341160126E0
:10459000410A01174108010E41290102411701F6A4
:1045A000401901EA401B01DE401D01CE401101C24D
:1045B000401001BA400D01AF404201A64032019DBA
:1045C00040330193400C0185400A01784008017096
:1045D000403401624031015D40350152400B0147DA
:1045E0004006013C4005013140040118400401022D
:1045F000400701FB3F3501F23F3501E83F3701DB62
:104600003F2601D13F0301C63F3601BD3F3101B313
:104610003F3D01A63F38019C3F0F01913F3C01887F
:104620003F28017E3F3001713F3E01673F12015C30
:104630003F2E0150726568656174204142532045E8
:104640006E64005072656865617420414253204277
:10465000656400507265686561742041425300547E
:10466000656D7065726174757265004261636B009F
:104670004E65787420506F696E740047323920504F
:1046800031004D31303920532569004D313930200A
:1046900053256900473238004275696C64204375C0
:1046A00073746F6D204D65736800426564205465B6
:1046B0006D70004265642054656D70004265642031
:1046C00054656D7000486F74656E642054656D703C
:1046D00000486F74656E642054656D7000486F7497
:1046E000656E642054656D70004275696C64204D80
:1046F000657368002E256900473239205036204303
:10470000202D00496E666F2073637265656E0048E8
:10471000656967687420416D6F756E7400486569DE
:1047200067687420416D6F756E740045646974200C
:104730004D65736800496E666F2073637265656EC0
:104740000041646A757374204D657368204865691B
:104750006768740046696E652054756E6520436C09
:104760006F7365737400473239205034205400460B
:10477000696E652054756E6520416C6C0047323956
:10478000205034205239393920540055424C20549D
:104790006F6F6C7300473238004732362043204237
:1047A000256920482569205000496E666F20736393
:1047B0007265656E0056616C69646174652043754D
:1047C00073746F6D204D6573680056616C69646128
:1047D000746520414253204D657368004732380AA2
:1047E00047323620432042313035204832343020A1
:1047F000500056616C696461746520504C41204DD5
:10480000657368004732380A473236204320423702
:1048100030204831383020500055424C20546F6FC2
:104820006C7300473239204A2569004C6576656C07
:10483000204D657368005369646520506F696E741C
:1048400073005369646520506F696E747300536917
:10485000646520506F696E74730055424C20546F2C
:104860006F6C7300496E666F2073637265656E00CE
:1048700047726964204D657368204C6576656C6984
:104880006E6700332D506F696E74204C6576656CD1
:10489000696E6700473239204A300055424C205437
:1048A0006F6F6C7300473239205033205220432EF3
:1048B000256900000020002300260029002C002F7D
:1048C0000032000001000003010601090105050591
:1048D00005070508080808020202020A0A08080477
:1048E00004040401010101010101010303030303A5
:1048F000030303040707070C0C0C0C0C0C0C0C0234
:1049000002020206060606060606060B0B0B0B0B3A
:104910000B0B0B0102102020080810204010204033
:104920008002010201080402010102040810204073
:104930008080402010080402018004020180402091
:1049400010080402010804020101020408102040BA
:1049500080010204081020408000000A0B02090CAC
:104960000D0E080703040100000000000000000015
:104970000000000000000000000000000000000037
:1049800000000000001211100000000000000000F4
:10499000000000000000000000000000000000F027
:1049A00000000000000000000000000000000F8078
:1049B0000000000000000000000000000000018076
:1049C0000000000000003FFC00000000000001802B
:1049D000000000000000FFFE0000000000000100D9
:1049E000000000000003FFFF800000000000000046
:1049F00000000000000FFFFFE000000000000000CA
:104A000000000000003FFFFFF00000000000000079
:104A10000000000000FFFFFFFC000000000000009D
:104A20000000000003F00000000000000000000093
:104A30000000000007E0000000000000000000008F
:104A4000000000000FE00000000000000000000077
:104A5000000000001FE00000000000000000000057
:104A6000000000001FE00000000000000000000047
:104A7000000000001FE01FFFFFE00000000000003A
:104A8000000000001FE03FFFFFE00000000000000A
:104A9000000000001FE03FFFFFE0000000000000FA
:104AA000000000001FE03FFFFFE0000000000000EA
:104AB000000000001FE03FFFFFE0000000000000DA
:104AC000000000001FE03FFFFFE0000000000000CA
:104AD000000000001FE03FFFFFE0000000000000BA
:104AE000000000001FE03FFFFFE0000000000000AA
:104AF000000000001FE03FFFFFE00000000000009A
:104B0000000000001FE03FFFFFE000000000000089
:104B1000000000001FE03FFFFFE000000000000079
:104B2000000000001FE03FFFFFE000000000000069
:104B3000000000001FE03FFFFFE000000000000059
:104B4000000000001FE03FFFFFE000000000000049
:104B5000000000001FE01FFFFFE000000000000059
:104B6000000000001FE00000000000000000000046
:104B7000000000001FE00000000000000000000036
:104B8000000000001FE00000000000000000000026
:104B9000000000001FE00000000000000000000016
:104BA000000000001FE00000000000000000000006
:104BB000000000001FE000000000000000000000F6
:104BC000000000000FE03FFFFFE0000000000000D9
:104BD0000000000007E03FFFFFC0000000000000F1
:104BE0000000000003E03FFFFF8000000000000025
:104BF0000000000001E03FFFFF0000000000000097
:104C00000000000000E03FFFFE0000000000000088
:104C10000000000000203FFFFC000000000000003A
:104C20000000000000003FFFF8000000000000004E
:104C30000000000000003FFFF00000000000000046
:104C40000000000000003FFFE00000000000000046
:104C50000000000000003FFFC00000000000000056
:104C60000000000000003FFF800000000000000086
:104C70000000000000003FFF0000000000000000F6
:104C80000000000000001FFE000000000000000007
:104C90000000000000000000000000000000000F05
:104CA000FC00000000000000000000000000000FF9
:104CB000FF000000000018000000000003F0000EDC
:104CC00007800F0007801800FC01B8000738000EAD
:104CD00003C03FC03FE01801FE01FC000E1C000EA7
:104CE000078060E030307E030301C6000C0C000F2B
:104CF000CF00003030307E0601818000000C000FB4
:104D0000FC0000303030180601818000001C000ECD
:104D10001C001FF030601806018180000038000E72
:104D20000F007FF03FC01806018180000070000E68
:104D30000780C0103F801806018180000060000ECF
:104D400003C0C010300018030301800001C0000E32
:104D500003C0703030001801870180000380000E0E
:104D600001D03FF030000C00FE0180000FFC000E6F
:104D700000E00F90300007007C0180001FFC0080E5
:104D8000000000003000000000000000000001C032
:104D900000000000200000000000000000000320D0
:104DA00020506C616E6E65724275666665724279FE
:104DB0007465733A20002046726565204D656D6FFD
:104DC00072793A2000436F6D70696C65643A204EC9
:104DD0006F7620313520323031390A00207C204175
:104DE0007574686F723A20286E6F6E652C2064654A
:104DF0006661756C7420636F6E666967290A00329C
:104E00003031382D30312D323000204C6173742018
:104E1000557064617465643A2000627567666978EC
:104E20002D322E302E780A004D61726C696E002092
:104E3000536F6674776172652052657365740A00FA
:104E4000205761746368646F672052657365740AE4
:104E5000002042726F776E206F7574205265736503
:104E6000740A002045787465726E616C2052657317
:104E700065740A00506F77657255700A007374612B
:104E800072740A006175746F25692E67006572720D
:104E90006F722077726974696E6720746F2066691B
:104EA0006C650A00446F6E6520736176696E6720D9
:104EB00066696C652E0A004D323900456E64737464
:104EC0006F707320256320256320256320256300F0
:104ED000205A3A0020593A0020583A00656E64730F
:104EE000746F7073206869743A20004D6573682090
:104EF000736176656420696E20736C6F7420003F67
:104F0000556E61626C6520746F2073617665206DEB
:104F100065736820646174612E0A0020736C6F747D
:104F20003D00206D65736865735F656E643D004587
:104F300032454E443D00206D65736820736C6F747C
:104F40007320617661696C61626C652E0A003F496D
:104F50006E76616C696420736C6F742E0A004D6507
:104F60007368206C6F616465642066726F6D207376
:104F70006C6F7420003F556E61626C6520746F2009
:104F80006C6F6164206D65736820646174612E0AC2
:104F90000048617264636F6465642044656661758E
:104FA0006C742053657474696E6773204C6F616410
:104FB00065640A00DC050000F401000090010000B7
:104FC000A00F00000000FA430000FA430000A040D8
:104FD0000000C8410000A0420000A0420000484478
:104FE0000000AC42556E69666965642042656420C4
:104FF0004C6576656C696E67003A0A0020286D6D15
:10500000290020204D36303320002055004C00462A
:10501000696C616D656E74206C6F61642F756E6C68
:105020006F6164206C656E677468733A0A002020B3
:105030004D393030204B004C696E656172204164FF
:1050400076616E63653A0A0020204D383531205A6A
:10505000005A2D50726F6265204F6666736574202A
:10506000286D6D293A0020440020490020204D334E
:1050700030312050005049442073657474696E6764
:10508000733A0A0020460020420020480020204DAC
:105090003134352053004D6174657269616C20684C
:1050A000656174757020706172616D65746572738D
:1050B0003A0A00206D65736865732E0A0A0045453B
:1050C00050524F4D2063616E20686F6C6420000A5F
:1050D000416374697665204D65736820536C6F7405
:1050E0003A2000205A0020204D3432302053003A1C
:1050F0000A00205A0020590020204D323036205816
:1051000000486F6D65206F66667365743A0A00200B
:105110004500205A002059002058002054002053F8
:105120000020204D32303520420020453C6D617812
:105130005F655F6A65726B3E0020583C6D61785F09
:10514000785F6A65726B3E20593C6D61785F795F6C
:105150006A65726B3E205A3C6D61785F7A5F6A6562
:10516000726B3E00416476616E6365643A20423C36
:105170006D696E5F7365676D656E745F74696D658B
:105180005F75733E20533C6D696E5F666565647242
:105190006174653E20543C6D696E5F747261766522
:1051A0006C5F66656564726174653E002054002022
:1051B000520020204D323034205000416363656C32
:1051C00065726174696F6E2028756E6974732F73D0
:1051D00032293A20503C7072696E745F6163636576
:1051E0006C3E20523C726574726163745F616363EC
:1051F000656C3E20543C74726176656C5F616363DC
:10520000656C3E0A00204500205A002059002020ED
:105210004D3230312058004D6178696D756D2041F7
:105220006363656C65726174696F6E2028756E6961
:1052300074732F7332293A0A00204500205A002047
:10524000590020204D3230332058004D6178696D6F
:10525000756D206665656472617465732028756E6E
:105260006974732F73293A0A00204500205A0020E0
:10527000590020204D393220580053746570732036
:1052800070657220756E69743A0A0020204D3230C4
:10529000302044300A0020204D323030204400209D
:1052A00044697361626C65640A0046696C616D658E
:1052B0006E742073657474696E67733A0020204DB4
:1052C0003134392043203B20556E69747320696E58
:1052D0002043656C736975730A00202047323120C2
:1052E0002020203B20556E69747320696E206D6DFF
:1052F00000205A3A0020593A0020436F756E7420FE
:10530000583A0020453A00205A3A0020593A0058AD
:105310003A00496E666F2073637265656E004D6179
:105320006E75616C2046696C6C2D696E0047323970
:10533000205032204220543000536D617274204658
:10534000696C6C2D696E004732392050332054301F
:105350000046696C6C2D696E20416D6F756E74002E
:1053600046696C6C2D696E20416D6F756E740042DC
:1053700075696C64204D657368004D6573682069BC
:105380006E76616C6964617465642E0A00496E66AC
:105390006F2073637265656E00496E76616C696437
:1053A00061746520436C6F736573740047323920F4
:1053B0004900496E76616C696461746520416C6C6A
:1053C00000436F6E74696E756520426564204D659B
:1053D00073680047323920503120430046696C6CB5
:1053E0002D696E204D657368004275696C642043B9
:1053F0006F6C64204D657368004732380A47323954
:10540000205031004275696C6420437573746F6D70
:10541000204D657368004275696C642041425320D9
:105420004D657368004732380A4D313930205331A9
:1054300030350A4D31303920533234300A47323951
:105440002050310A4D3130342053300A4D31343040
:10545000205330004275696C6420504C41204D65EA
:105460007368004732380A4D313930205337300ADB
:105470004D31303920533138300A473239205031DC
:105480000A4D3130342053300A4D313430205330FE
:105490000055424C20546F6F6C73004D31313720F2
:1054A0004D65736820256920736176656400473215
:1054B0003920532569004D313137204D65736820FF
:1054C0002569206C6F6164656400473239204C2582
:1054D00069005361766520426564204D65736800FC
:1054E0004C6F616420426564204D657368004D65B2
:1054F0006D6F727920536C6F74004D656D6F7279AA
:1055000020536C6F74004D656D6F727920536C6F12
:1055100074004E6F2073746F7261676500556E6919
:105520006669656420426564204C6576656C696EC9
:105530006700486F6D696E672058595A00473239C5
:105540002050342058257320592573205225690096
:10555000202D2D2D2D2D004732380020746F6F2007
:105560006C6F6E6720657874727573696F6E2070EA
:10557000726576656E7465640A0020636F6C6420E2
:10558000657874727573696F6E2070726576656E7A
:105590007465640A004D6F766520302E316D6D00A4
:1055A0004D6F766520316D6D004D6F766520313021
:1055B0006D6D004D6F766520617869730045787474
:1055C0007275646572004D6F7665205A004D6F7676
:1055D000652059004D6F76652058004578747275C6
:1055E000646572004D6F7665205A004D6F766520B8
:1055F00059004D6F76652058004D6F74696F6E00CD
:10560000496E697469616C697A6520454550524FED
:105610004D00416476616E636564205365747469FE
:105620006E6773004C6F61642073657474696E6794
:105630007300526573746F7265206661696C736183
:1056400066650053746F72652073657474696E6764
:105650007300507265686561742041425320636F26
:105660006E66005072656865617420504C4120631D
:105670006F6E6600424C546F7563680041647661DA
:105680006E6365642053657474696E6773004D6161
:10569000696E005072656865617420414253005024
:1056A00072656865617420504C4100436F6F6C6493
:1056B0006F776E0046616E207370656564004661A9
:1056C0006E2073706565640046616E207370656559
:1056D000640042656400426564004E6F7A7A6C65CE
:1056E000004E6F7A7A6C65004D61696E0043616EA1
:1056F0006E6F74206F70656E2073756264697220BE
:10570000006563686F3A00453120544845524D4169
:105710004C2052554E41574159004245442054486F
:1057200045524D414C2052554E4157415900546805
:1057300065726D616C2052756E61776179007C3C99
:105740003E5E2B3D3F2F5B5D3B2C2A225C004B498C
:105750004C4C45442E2000202D20496E76616C690A
:1057600064206578747275646572206E756D62650B
:105770007220210A0070012C0190012701B0012242
:1057800001C0011D01F00118011002130130020EC9
:10579000016002090190020401C002FF000003FA47
:1057A000004003F5008003F000D003EB002004E686
:1057B000007004E100E004DC004005D700C005D221
:1057C000004006CD00D006C8008007C3003008BEE8
:1057D00000F008B900C009B400B00AAF00B00BAACD
:1057E00000D00CA500000EA000500F9B00C010962A
:1057F000005012910000148C00C0158700B0178271
:1058000000B0197D00D01B7800001E730040206E90
:105810000090226900F024640040275F0090295A1C
:1058200000E02B5500102E500020304B0010324667
:1058300000E033410090353C0010373700703832BB
:1058400000A0392D00B03A2800A03B2300603C1E88
:1058500000103D1900903D1400103E0F00703E0AEC
:1058600000C03E0500003F0000403FFBFF803FF6C8
:10587000FFC03FF1FF4531204572723A204D41583B
:1058800054454D50004572723A204D415854454D93
:105890005020424544004D415854454D50207472AB
:1058A00069676765726564004531204572723A2008
:1058B0004D494E54454D50004572723A204D494E67
:1058C00054454D5020424544004D494E54454D509D
:1058D00020747269676765726564000A0A00202097
:1058E0005A5F4D494E3A002020595F4D41583A00C9
:1058F0002020585F4D494E3A004D383420582059E9
:10590000205A204500202F002042403A0020403AF3
:105910000053544F505045442E20005072696E740D
:1059200065722073746F707065642064756520748F
:105930006F206572726F72732E20466978207468CA
:1059400065206572726F7220616E642075736520C8
:105950004D39393920746F20726573746172742EF9
:10596000202854656D706572617475726520697365
:105970002072657365742E205365742069742061EC
:10598000667465722072657374617274696E6729DA
:105990000A0053544F502063616C6C65642062654B
:1059A0006361757365206F6620424C546F75636840
:1059B000206572726F72202D20726573746172742B
:1059C0002077697468204D3939390A0050726F6246
:1059D000696E67206661696C65640A0050726F6267
:1059E000696E67206661696C656400205A3A200020
:1059F00020593A200042656420583A200050726FC6
:105A00006265205A204F6666736574004D65736841
:105A100020456469746F720050726F6265205A206D
:105A20004F666673657400466C6F7700466C6F77DF
:105A30000046616E2073706565640046616E207378
:105A4000706565640046616E207370656564004230
:105A5000656400426564004E6F7A7A6C65004E6F33
:105A60007A7A6C6500466164652048656967687488
:105A70000046616465204865696768740053706515
:105A80006564005370656564005370656564004D1E
:105A900061696E005072656865617420504C4120E8
:105AA000456E64005072656865617420504C4120F9
:105AB000426564005072656865617420504C410015
:105AC00054656D7065726174757265004D657368BB
:105AD00020706F696E742063616E6E6F74206265F2
